:100000000C94F7070C941B640C94F6630C94D16366
:100010000C94AC630C9487630C9462630C943D6302
:100020000C9418630C94F3070C94F3070C94F307E7
:100030000C94F3070C94F3070C94F3070C94B16041
:100040000C94F3070C94F3070C9444610C94F3079D
:100050000C94F3070C9438650C94F3070C94F30795
:100060000C94F3070C94F3070C94F3070C94F30728
:100070000C94F3070C94F3070C9476610C94F3073B
:100080000C94F3070C94AB610C94F30745CF00720A
:10009000689F921102000000000065787465726E1E
:1000A000616C5F7265736574004A54414700706FFC
:1000B0007765725F6661696C75726500736F6674EF
:1000C00077617265007761746368646F67000A0026
:1000D0002C206C696D6974203D20002C20737020E9
:1000E0003D2000537461636B206F766572666C6FA0
:1000F000773A207063203D200005010D0136333032
:10010000392120633835323B2362653734313A2256
:100110006164206932635F61646472200063616EB0
:100120006E6F742072656164207369676E616C2004
:1001300000206932635F61646472200063616E6EE7
:100140006F7420736574207369676E616C200000A2
:100150000010100000111000001210000014100018
:1001600000151000001610000017100000331000DA
:100170000032100000311000003010000027010094
:10018000002601000036010172C16107010474C13B
:100190006207020576C16307031078C16407041182
:1001A0007AC1650705147CC1660706177EC167071B
:1001B000071D80C16807081F82C16907093584C10E
:1001C0006A070A3786C16B070B3D88C16C070C2C88
:1001D0002072657365742063617573653A200068E9
:1001E00061726400636F6C64007761726D005265C8
:1001F00073657420747970653A2000506967656F83
:100200006E20506F696E742053797374656D73201E
:1002100028632920436F70797269676874203230CF
:1002200030342D323030392E0A00292C204D4D43E8
:100230002065646974696F6E2E0A00424D522D412B
:100240005652204669726D77617265202876000AE1
:100250000A000A0049504D4220616464726573735C
:100260003A20307800496E76616C69642067656F6A
:100270006772617068696320616464726573730A90
:100280000047656F677261706869632061646472BA
:100290006573733A200047552050000000050100A7
:1002A00000060100000701000004013C443E3A2022
:1002B0003C2D2D205B0000004210526573657420B8
:1002C00074686520626F61726420746F2072657358
:1002D000746172742074686520424D522D415652EB
:1002E0002E0A0054686520424D522D4156526669CF
:1002F000726D7761726520667265657A65732E0A24
:10030000003C443E3A202D2D3E205B00756E6B6E06
:100310006F776E206661696C7572650A006E6F7426
:100320002072656164790A00627573790A006E6FE4
:100330002061636B6E6F776C656467650A00746932
:100340006D656F75740A0049504D42206572726F79
:10035000723A2000000000000000000000000000D1
:10036000000000002D2D3E20003C2D2D20003C5093
:100370003E3A20003C503E3A20003C413E3A2000AC
:100380003C4C3E3A20003C453E3A20003C5F3E3A21
:10039000200006010010FD1806020001051B0603DF
:1003A0000001F81A0652FFFF551C06220001764193
:1003B00006240601A441062500094D410A10010446
:1003C00048190A1104FFF81B0A12FF027E1A062EB2
:1003D00001013519062F00021719063001012019F5
:1003E00006310002F61E0634FF016319063300FFD2
:1003F0004E1E04000201602D04010003542D042050
:10040000FF032F2D042106FFDC2E04220003C52E3E
:10041000042302019C280424040126350425020338
:10042000963404260801FF31042701086C310428A2
:10043000FF019430042901064230042B0104882E68
:10044000042D0105EE2D042F0103AC32050201003D
:10045000E32C0642010A5D550C10FF0142550C11B8
:1004600004FF275500000105121F0100FF08391F76
:100470001E000203703A04000302B61F05000204C6
:100480000E2406000306D123070006020F270800EA
:10049000030A28240D000204731F190006022A3ED5
:1004A0001A000212BF3D2C000A02CE532C00040297
:1004B000CE532D00020A62522E00010992482F00ED
:1004C00003408D4D31000302EC4A34000105DC4845
:1004D000300001020F4938000102804D3200FFFF59
:1004E000E54E33000602804B3500FF02844C370096
:1004F0000104ED48000308192101040588220205C2
:100500000451220303052B2104040442222C030579
:1005100034212D040419220703056A2108040498D4
:10052000210903053D210A0404F72115030646218C
:10053000160504CA210C030456210B030460210D87
:10054000040485210E03048321110304983A120444
:1005500004813A2B040475217377617070656420FF
:100560005050532049414E4120696E2074686520E7
:100570006D6573736167650A00000000020408116D
:1005800022330000C701000000000000000000004E
:10059000000000000000000000000000000000005B
:1005A000C501000000000000000000000000000085
:1005B000000000000000000000000000C601000074
:1005C000000000000000000000003A200053656EAB
:1005D000736F7220006D616E75616C2072652D61A4
:1005E000726D2073656E736F727320617265206E19
:1005F0006F7420737570706F7274656400756E6BC4
:100600006E6F776E20534452207479706500756E5A
:100610006B6E6F776E205344522076657273696FEC
:100620006E0073656E736F7220534452206E6F7448
:1006300020666F756E6400616C726561647920720A
:1006400065676973746572656400290A006576657B
:100650006E74206D6573736167652072656A65638A
:1006600074656420280073656E736F7220646F6513
:1006700073206E6F7420737570706F72742065765E
:10068000656E74730A006576656E74206D657373AC
:100690006167652064656C69766572792074696D3F
:1006A0006564206F75740A006576656E74206D65EB
:1006B00073736167652064656C697665727920661D
:1006C00061696C65640A00696E76616C69642073A7
:1006D000656E736F72206E756D6265720A00BC354F
:1006E000E835F43500000000000000000000DE06E0
:1006F000010000003666367736000000000000007A
:100700000000005E37EC37143961381C39B4380A00
:10071000390000050403020100070609080B0A530B
:10072000656E736F7220616C6572740A0044696152
:10073000676E6F7374696320696E74657272757029
:10074000740A00477261636566756C207265626F3A
:100750006F7420726571756573740A0052657365F4
:100760007420616C6572740A0053687574646F77E5
:100770006E20616C6572740A005061796C6F6164FF
:1007800020506F7765722073656E736F7220697386
:10079000206E6F7420666F756E640A007061796CEC
:1007A0006F616420697320616C7265616479206F88
:1007B00066660A000000A5107061796C6F616420A4
:1007C000697320616C7265616479206F6E0A000044
:1007D00001050000008001012F02000000810102DC
:1007E00001050000008201030105000000830120D3
:1007F00069732064656163746976617465640A0075
:10080000206973206163746976617465640A0045C8
:100810002D6B6579696E67206C696E6B2023000310
:10082000070204020100030703040202005E373AD4
:1008300040143925401C3910400A3902402D080463
:1008400000029000000036EF407736000000000004
:1008500000000000004508060200000010104508D6
:1008600007020000001110450808020000001210E5
:1008700045080900000000131045080A02000000A6
:10088000141045080B02000000151045080C02006A
:100890000000161045080D03000000171045080E53
:1008A00003000000351045080F0300000033104519
:1008B0000810030000003210450811030000003149
:1008C00010450812030000003010304166367736BC
:1008D00000000000000000000000424D432057616E
:1008E000746368646F6720657870697265640A0074
:1008F000CA08050000556E61626C6520746F207730
:100900007269746520696E7465726E616C20696EBF
:10091000666F20454550524F4D0A00436F6C64206E
:100920006461746120666F726D6174206368616ECA
:100930006765640A436F6E76657274696E672074CA
:100940006F206E657720666F726D61740A00436F69
:100950006C642064617461207570677261646520E5
:100960006661696C65642120506572666F726D699D
:100970006E6720686172642072657365742E0A0068
:10098000506572666F726D696E6720636F6C64206C
:100990006461746120757067726164652E2E2E0A21
:1009A00000436F6C642064617461206A6F75726EBD
:1009B000616C2073697A6520697320746F6F20738E
:1009C0006D616C6C0A00556E61626C6520746F20FD
:1009D0007265616420696E7465726E616C20696E07
:1009E000666F20454550524F4D0A00290A004E6F50
:1009F00020636F6E76657273696F6E2066756E63C5
:100A000074696F6E20666F756E6420666F72202841
:100A10000029206661696C6564210A00436F6E7667
:100A2000657273696F6E2066756E6374696F6E2090
:100A3000666F7220280029206469666665720A0064
:100A40005761726E696E673A2073697A6573206FB9
:100A50006620636F6C642064617461202800666C9A
:100A6000757368696E6720434F4C445F444154413D
:100A7000206F7574206F6620697473206C696D69CE
:100A800074730A00466C6173682F454550524F4D90
:100A9000207772697465206661696C65640A004636
:100AA0006C6173682F454550524F4D2077726974C1
:100AB00065206661696C65640A00466C6173682F25
:100AC000454550524F4D20777269746520666169C3
:100AD0006C65640A002066726571200020616363A2
:100AE00020002066616D696C79200020706C6C209C
:100AF0000020636667200072656365697665720031
:100B0000736F757263650020656E61626C65643A2F
:100B100020002064697361626C65640A00436C6F35
:100B2000636B20494420230043616E277420726563
:100B3000676973746572206368616E6E656C00012D
:100B400001410000000000000A02FE0F1A00F15DE2
:100B5000C55DEF5F000000020A020A00955A7F5A45
:100B6000AB5F0101500000000000000A02FE0F3FD1
:100B700000ED5EB35E1060000000020A020A0095FC
:100B80005A7F5AAB5F0101510000000000000A02C9
:100B9000FE0F3F00ED5EB35E1060000000020A022F
:100BA0000A00955A7F5AAB5F010152000000000015
:100BB000000A02FE0F3F00ED5EB35E106000000011
:100BC000020A020A00955A7F5AAB5F0000005112D8
:100BD0001B0000CC29000000C16000D0506572737A
:100BE000657573203630313020414D43010051018D
:100BF00033000000C1606741F26F1F0000001F005A
:100C000000000000000000000000000000000000E4
:100C10000000000000000000000000C8486F7420C1
:100C2000537761700200510130000000C1607F689D
:100C30000201957A957A3F3F000400008F00AF00D3
:100C400000CF00E7F5D9FF00FCF5F2D2D9DD0404AE
:100C5000000000C52B332E3356030051012F000036
:100C600000C1607F680201957A957A3F3F000400D9
:100C7000003700AF0000DF00DAF4C1FB00F7F4ED4D
:100C8000BDC1C80202000000C42B3132560400511D
:100C90000134000000C1607F680101800A807A3859
:100CA00038800100006400000000E000195A007D57
:100CB000D8554B410000000202000000C9445337E0
:100CC000352054656D700500510137000000C1608A
:100CD0006741236F0F0100000F01000000000000BA
:100CE0000000000000000000000000000000000004
:100CF0000000000000CC424D4320576174636864DB
:100D00006F670600510136000000C1606741086F3F
:100D100003000300030000000000000000000000CA
:100D200000000000000000000000000000000000C3
:100D300000CB50475F444452335F56545407005130
:100D40000131000000C1606741086F030003000328
:100D50000000000000000000000000000000000093
:100D6000000000000000000000000000C650475FC7
:100D70003356330800510131000000C1606741085B
:100D80006F030003000300000000000000000000EB
:100D90000000000000000000000000000000000053
:100DA0000000C650475F315638090051013200003B
:100DB00000C1606741086F000000000300000000F0
:100DC0000000000000000000000000000000000023
:100DD0000000000000000000C750475F5641444A31
:100DE0000A00510131000000C1606741086F030033
:100DF00003000300000000000000000000000000ED
:100E0000000000000000000000000000000000C61C
:100E100050475F3256350B00510131000000C16070
:100E20006741086F0300030003000000000000009A
:100E300000000000000000000000000000000000B2
:100E40000000000000C650475F3356380C005101C7
:100E500031000000C1606741086F03000300030018
:100E60000000000000000000000000000000000082
:100E70000000000000000000000000C650475F3185
:100E800056350D00510131000000C1606741086F07
:100E900003000300FF01000000000000000000004C
:100EA0000000000000000000000000000000000042
:100EB00000C650475F3156300E005101350000002A
:100EC000C1606741086F03000300FF0100000000DC
:100ED0000000000000000000000000000000000012
:100EE00000000000000000CA464D435F50475F4DC0
:100EF00032430F00510138000000C1606741086FA4
:100F000003000300FF0100000000000000000000DB
:100F100000000000000000000000000000000000D1
:100F200000CD50475F4D47545F415654545F4E10BB
:100F300000510138000000C1606741086F030003E1
:100F400000FF0100000000000000000000000000A1
:100F50000000000000000000000000000000CD5074
:100F6000475F4D47545F415643435F4E1100510167
:100F700038000000C1606741086F03000300FF01F3
:100F80000000000000000000000000000000000061
:100F90000000000000000000000000CD50475F4D41
:100FA00047545F415643435F5312005101380000DC
:100FB00000C1606741086F03000300FF01000000EB
:100FC0000000000000000000000000000000000021
:100FD0000000000000000000CD50475F4D47545F07
:100FE000415654545F531895F8940C94F407112407
:100FF00000E10EBF0FEF0DBF1F921F9214B73327F2
:10100000212F2F71283021F02230A1F022E115C0CC
:101010000091000130910101202F20780F770332D9
:1010200049F0043309F008C0246391E08AE374E0D6
:1010300063E907C0236201C0226192E08EE176E09D
:1010400060E200E00BBFFDECE3E2D1E0C0E0DC01D8
:10105000A89507910993A150B04008F0D1F7D3E0CB
:10106000C2E2DB011992A150B04008F0D9F72093F9
:10107000220330930101A8950C945D08809122030E
:10108000823161F404B601FC11C004B604FE03C051
:1010900089EA90E010C08EEA90E00DC087FF03C09F
:1010A0008CEB90E008C004B601FE03C08AE990E032
:1010B00002C085EC90E014BE08950E94F70B0E94D8
:1010C000A9080E946A090E94620D0E94560B0E94A4
:1010D00032150895EF92FF920F931F937C018B01BD
:1010E00063EE70E080E00E94690EB801660F672F22
:1010F000661F770B719580E00E94B40E000F602F81
:1011000080E00E94B40E6BED70E080E00E94690EFA
:101110006F2D772780E00E94B40E6E2D80E00E9434
:10112000B40E60ED70E080E00E94690E02E419E008
:10113000612F772767FD7A9580E00E94B40E602FBB
:1011400080E00E94B40E6EEC70E080E00E94690EB8
:10115000FFCF80B5826080BD8BE083BF10BE85EE7F
:1011600081BF83E086BF82E087BF80B58D7F80BD71
:1011700008950E94506008950F931F93CF93DF93BB
:101180008C01C0E0D0E0FC01648175818081918197
:1011900001960E94B908F8012281338182179307D2
:1011A00011F4C1E0D0E0CE01DF91CF911F910F91FA
:1011B00008950F931F93CF93DF93EC01EE81FF818E
:1011C00088819981E80FF91F60836C817D81888116
:1011D000998101960E94B90899838883DF91CF9104
:1011E0001F910F910895982F5D9BFECF80E48BB9DE
:1011F0009CB908955E9BFECF089589B9892F9927E0
:10120000809390001BB886E08093950088E98AB9A6
:101210000895982F80919B0085FFFCCF80E48093F8
:101220009B0090939C00089580919B0086FFFCCFCB
:10123000089580939900892F9927809398001092A0
:101240009B0086E080939D0088E980939A00089532
:101250000E9450600895FC016481758182819381B0
:10126000860F971F20813181821B930B01970E946B
:1012700028090895FF920F931F93CF93DF938C015A
:10128000F62ECA01E8016C817D8128813981820FA7
:10129000931F0E942809EE81FF81E80FF91FF08259
:1012A000E5E0CDB7DEB70C94E80B83E0809328042B
:1012B00008951092280408958093290480912904A8
:1012C000816080937200E4E7F0E08081857780643C
:1012D00080830895919A909AE4E7F0E010828CE17F
:1012E000809370001092710085E8808308951F93A9
:1012F0001FB7F8940E946A0980912904882321F07D
:10130000809129040E945C0910922A041FBF1F913A
:101310000895A0E0B0E0EFE8F9E00C94BB0BEC011D
:101320006B01042F97FF19C00E9499607C010E94F5
:1013300099608E199F09459708F06BC084E102C03F
:10134000815069F0809BF3CF8199FACFF0CF109252
:1013500074001FBF0E947709EACFEE24FF241FB755
:10136000F894D7FF22C080912A04882309F050C046
:1013700080917400857780628093740081E080930F
:101380002A040E9499609093350480933404D0928B
:101390003004C0922F0400932C04D0932E04C093E9
:1013A0002D0410922B049FE016C080917400857765
:1013B000816080937400D0923004C0922F04009317
:1013C0002C04D0932E04C0932D0410922B0414C02F
:1013D000915009F4BCCF8091740087FFF9CF8091C0
:1013E0007100887F8830A1F7C093730080917400EA
:1013F00085758068809374001FBF80912B0487FFE0
:10140000FCCF80912B048F77992787FD909503C09F
:101410001FBF82E090E0E8E0CDB7DEB70C94E50BAB
:10142000FF929927FC01E077F07024E0F595E795AD
:101430002A95E1F7E55FFE4FF690EF2DFF278770C5
:10144000907021E030E002C0220F331F8A95E2F74E
:101450009FB7F8948081662311F0822B02C02095FB
:10146000822380839FBFFF900895FF929927FC01FC
:10147000E077F07034E0F595E7953A95E1F7EC5FA9
:10148000FE4FF690EF2DFF278770907021E030E03F
:1014900002C0220F331F8A95E2F79FB7F89480812C
:1014A000662311F0822B02C02095822380839FBF88
:1014B00080E090E0FF9008950E94350A0895FF9221
:1014C000DB019927FC01E077F07044E0F595E795A2
:1014D0004A95E1F7E350FF4FF69040E0EF2DFF27EC
:1014E0008770907021E030E002C0220F331F8A9590
:1014F000E2F78081822309F041E04C9380E090E0A4
:10150000FF900895A1E0B0E0E8E8FAE00C94C10B88
:10151000BE016F5F7F4F0E945F0A882319F080E051
:1015200090E002C089819927E2E021960C94EB0BB0
:10153000FF920F931F93182F062FFFB6F89460E0C9
:101540000E94100A602F812F0E945C0AFFBE1F912B
:101550000F91FF90089599279C0123703070220FFE
:101560003FB7F89487709070422F5527772767FD13
:1015700070950497ACF420916A0083E090E0042E0B
:1015800002C0880F991F0A94E2F78095282302C0B1
:10159000660F771F4A95E2F7262B20936A0012C048
:1015A0002AB783E090E0042E02C0880F991F0A94A6
:1015B000E2F78095282302C0660F771F4A95E2F76D
:1015C000262B2ABF3FBF0895482F883078F43FB7B5
:1015D000F89429B7477081E090E002C0880F991F06
:1015E0004A95E2F78095282329BF3FBF08954FB75A
:1015F000F89499B7877021E030E002C0220F331FC2
:101600008A95E2F7922B99BF4FBF0895282F883013
:1016100048F4277081E090E002C0880F991F2A9556
:10162000E2F788BF0895382F883018F080E090E006
:10163000089528B7377081E090E002C0880F991FA5
:101640003A95E2F72823822F99270895E82FFF275C
:10165000EE0FFF1FEA54FB4F80819181892B11F41B
:101660007183608308951F93182FE82FFF27EE0FD3
:10167000FF1FEA54FB4F0190F081E02D309731F4C9
:101680000E94060B812F0E94E40A01C009951F9158
:10169000089584B195B1089597B1907E982B97B92C
:1016A00086B1806D86B908953798089580E287B92C
:1016B0008FE986B90895E199FECF9FBB8EBB6DBBC4
:1016C0008FB7F894E29AE19A8FBF0895E199FECF1F
:1016D0009FBB8EBBE09A8DB399270895A0E0B0E040
:1016E000E4E7FBE00C94BB0B9B016A017C01EA017F
:1016F0000BC0A895F70161917F0189010F5F1F4F12
:10170000C9010E945B0B98012197FFEFCF3FDF07D4
:1017100081F7C601E8E0CDB7DEB70C94E50BA0E099
:10172000B0E0E5E9FBE00C94BB0B6A017C01EA0147
:101730000BC0A8958B010F5F1F4FCB010E94660B5A
:10174000F70181937F01B8012197FFEFCF3FDF07BA
:1017500081F7C601E8E0CDB7DEB70C94E50B1CBA03
:1017600008952F923F924F925F926F927F928F9245
:101770009F92AF92BF92CF92DF92EF92FF920F9320
:101780001F93CF93DF93CDB7DEB7CA1BDB0BD930E6
:1017900048F011F4C23430F00FB6F894DEBF0FBE3B
:1017A000CDBF0994F894BF01CE0100E10EBF0FEF49
:1017B0000DBF0C946A082A88398848885F846E8433
:1017C0007D848C849B84AA84B984C884DF80EE8065
:1017D000FD800C811B81AA81B981CE0FD11D0FB66E
:1017E000F894DEBFCDBF0FBECA2FDB2F089588E16E
:1017F00090E02FE00FB6F894A89581BD0FBE21BDF3
:101800000895806880930001F89488E190E028E0D2
:101810000FB6F894A89581BD0FBE21BDFFCF8823D8
:1018200049F00FB6F8948091650088608093650058
:101830000FBE08C00FB6F89480916500877F809333
:1018400065000FBE87E08A95F1F7089590916300D7
:1018500087E08A95F1F720E030E093FF02C021E0B5
:1018600030E0C90108950FB6F89480916400886053
:10187000809364000FBE08950FB6F89480916400C1
:10188000877F809364000FBE0FB6F8948091650047
:10189000877F809365000FBE0895882349F00FB6B7
:1018A000F894809164008F7E809364000FBE08C01E
:1018B0000FB6F894809164008061809364000FBE3D
:1018C00087E08A95F1F7089587E08A95F1F780E03F
:1018D0000E940F0C0E94330C81E00E944D0C81E0AD
:1018E0000E940F0C0E943C0C08951F93182F80E05B
:1018F0000E944D0C0E94330C812F0E940F0C81E03E
:101900000E944D0C87E08A95F1F71F91089580E0C1
:101910000E944D0C0E943C0C81E00E940F0C81E063
:101920000E944D0C0E94260C992708950F931F9337
:10193000182F08E0812F80780E94750C110F01503C
:10194000C9F70E94870C182F80E00E944D0C812F50
:1019500099271F910F9108950F931F9310E00AE0AC
:1019600001C01F5F0E94870C882311F41930C8F34F
:101970000E94640C0E94260C882321F4015011F06F
:1019800010E0F0CF80E090E0002311F481E090E0DF
:101990001F910F910895A0E0B0E0E1EDFCE00C9400
:1019A000B90B6C017B01A42E1092C60497FF30C0C6
:1019B0000E943C0C0E94260C882321F40E94AC0C4F
:1019C0008823B9F487E08A95F1F781E00E940F0C33
:1019D0000E94330C81E00E944D0C80E00E940F0CAD
:1019E00011E01093C7048C2D0E94960C882339F4C3
:1019F0000FC083E08093C6048FEF90E03AC010934D
:101A0000C6048FEFB82E2FC081E08093C6042BC090
:101A1000BB2425C0C0FE19C0CA2DDD27CB19D109B2
:101A200018E000E0000F0E94870C082B1150D1F73E
:101A300080E0219709F481E00E94750C80E00E940B
:101A40004D0CF70101937F0109C0F70180810E94CD
:101A5000960C8823C9F60894E11CF11CB394BA14BF
:101A6000C9F6D6FE04C00E94640C1092C7048B2DE8
:101A70009927EAE0CDB7DEB70C94E30B9C01809187
:101A8000C8049091C904892B19F080E090E0089572
:101A9000C9010E94CB0C992708950FB6F894809144
:101AA00064008061809364000FBE0FB6F89480914B
:101AB00065008F7E809365000FBE1092C90410925E
:101AC000C80408950FB6F89480916400877F8093CE
:101AD00064000FBE0FB6F89480916500877F8093F5
:101AE00065000FBE0FB6F89480916400806180930A
:101AF00064000FBE0FB6F894809165008F7E8093CE
:101B000065000FBE0E94AC0C1092C704089581E0DE
:101B100090E09093C9048093C8040FB6F894809124
:101B20006400877F809364000FBE0FB6F8948091A5
:101B30006500877F809365000FBE0FB6F894809193
:101B400064008F7E809364000FBE0FB6F89480917E
:101B500065008F7E809365000FBE08956F927F921F
:101B60008F929F92AF92BF92CF92DF92EF92FF92AD
:101B70000F931F937B018C0139014A01AA24BB24D6
:101B8000650111C0A895C801B7010E9402FF80E05D
:101B900091E0A0E0B0E0E80EF91E0A1F1B1FA80E9E
:101BA000B91ECA1EDB1EA614B704C804D90450F31C
:101BB000C601B5011F910F91FF90EF90DF90CF907C
:101BC000BF90AF909F908F907F906F9008950E94EC
:101BD00000FF0895A0E0B0E0E0EFFDE00C94B50B4D
:101BE000EC013A014B0158016901EE24FF24870101
:101BF00013C0B401A3014E0D5F1D601F711FCE0104
:101C00008E0D9F1D0E94E70D80E091E0A0E0B0E006
:101C1000E80EF91E0A1F1B1FEA14FB040C051D0524
:101C200040F380E090E0EEE0CDB7DEB70C94DF0B40
:101C3000A0E0B0E0EEE1FEE00C94B50BEC013A015F
:101C40004B0158016901EE24FF24870113C0B40140
:101C5000A3014E0D5F1D601F711FCE018E0D9F1DD4
:101C60000E94E70D80E091E0A0E0B0E0E80EF91EF0
:101C70000A1F1B1FEA14FB040C051D0540F380E03E
:101C800090E0EEE0CDB7DEB70C94DF0B0F931F931F
:101C9000082F162F882321F4862F0E94F30803C0F3
:101CA000862F0E9409091A3051F4002321F48DE097
:101CB0000E94F30806C08DE00E94090905C00023B8
:101CC00019F40E94FA0802C00E9414091F910F9192
:101CD0000895FF921F93CF93DF93182FEB0104C059
:101CE0006F2D812F0E94460EFE012196F690FF2057
:101CF000B9F7DF91CF911F91FF900895A5E0B0E073
:101D0000E4E8FEE00C94BB0B082F9B01EE24FF24BB
:101D10006E010894C11CD11C13C0F601E10FF11D26
:101D2000C9016AE070E00E945060805D8083C90153
:101D30006AE070E00E9450609B010894E11CF11C75
:101D40001E2D2115310549F7EE2039F31150FE0102
:101D5000E10FF11D6181802F0E94460E1123B1F722
:101D6000E8E025960C94E50B0F931F93082F162F90
:101D700062956F706A3010F0695C01C0605D802F01
:101D80000E94460E612F6F706A3010F0695C01C0CE
:101D9000605D802F0E94460E1F910F9108956F7015
:101DA0006A3010F0695C01C0605D0E94460E0895C3
:101DB0001F93CF93DF93182FEB0104C02196812F3F
:101DC0000E94460E68816623C9F7DF91CF911F916B
:101DD0000895E82FFF27E077F07093E0F695E795F8
:101DE0009A95E1F7EB54F84F8770880F2081318185
:101DF00002C0369527958A95E2F7C90183709070E5
:101E000008958091CA049091CB04892B31F4949A5F
:101E10008C9A82E08A95F1F7949808958091CA048B
:101E20009091CB0401969093CB048093CA040895BB
:101E30008091CA049091CB0401979093CB04809336
:101E4000CA0408950F931F93CF93DF938C01EB0186
:101E5000FC013281232F2F77283011F481E00BC051
:101E6000FC0180819181892B79F437FF08C0822F92
:101E70000E94E90E8170888380E090E042C0822F4A
:101E80000E945F0A8823C1F30E94E91780919C0297
:101E900081FF35C06DE171E080E00E94690E8091A4
:101EA0009C0281FF2CC0F80162816F7780E00E9464
:101EB000B40E80919C0281FF22C062E171E080E05B
:101EC0000E94690E80919C0281FF19C0F801608117
:101ED0007181672F772780E00E94B40E80919C0269
:101EE00081FF0DC0F801608180E00E94B40E8091F6
:101EF0009C0281FF04C06AE080E00E94460E8FEFE2
:101F00009FEFDF91CF911F910F910895A5E0B0E071
:101F1000ECE8FFE00C94BF0B8E010E5F1F4F44E016
:101F200050E0BC01C8010E943E59BE016F5F7F4F67
:101F3000C8010E94220F882319F080E090E00BC0B6
:101F400089819D81882319F0892F8F7003C0892F83
:101F500082958F709927E4E025960C94E90B1F93E6
:101F6000CF93DF93EC01162F2A812F77283009F4C5
:101F700053C088819981892B09F051C0623009F4DE
:101F800042C0822F0E94350A882321F0992787FDBD
:101F900090957FC08A8161E08F770E94100A8A81C4
:101FA00087FF3AC0112311F073E001C072E04A814B
:101FB0004F776FB7F894E42FE295EF70FF274770E3
:101FC000440F5527EE0FFF1FEB54F84F23E030E08E
:101FD000042E02C0220F331F0A94E2F72095309599
:101FE0008081918128233923872F992702C0880F68
:101FF000991F4A95E2F7282B392B318320836FBF35
:102000000E94010F09C060E0822F0E94100A8A819D
:1020100060E08F770E94980A80E090E03AC00E94CA
:10202000E91780919C0281FF32C06CE371E080E08F
:102030000E94690E80919C0281FF29C06A816F779E
:1020400080E00E94B40E80919C0281FF20C061E379
:1020500071E080E00E94690E80919C0281FF17C0B0
:1020600068817981672F772780E00E94B40E809184
:102070009C0281FF0CC0688180E00E94B40E8091B8
:102080009C0281FF04C06AE080E00E94460E8FEF50
:102090009FEFDF91CF911F910895A4E0B0E0E3E5B9
:1020A000F0E10C94C00B162F44E050E0BC01CE01CF
:1020B00001960E943E596C81112311F06F7002C08D
:1020C00062956F70CE0101960E94AF0FE3E02496F7
:1020D0000C94EA0B61E00E944D10089560E00E94AC
:1020E0004D1008958091CA049091CB04019790936C
:1020F000CB048093CA040E94010F1B98139A089581
:10210000FF920F931F93CF93DF9380912203843329
:1021100031F520C0C80164E0880F991F6A95E1F786
:10212000F82EFC2A8F2D0E94E90E682F81FF08C02F
:1021300061708F2D0E945C0A61E08F2D0E94100A51
:102140002196C830D10531F70F5F1F4F08301105B8
:1021500019F405C000E010E0C0E0D0E0DBCF8091D2
:10216000CA049091CB0401969093CB048093CA0447
:10217000E5E0CDB7DEB70C94E80BA0E0B0E0E3EC0F
:10218000F0E10C94BB0B83E891E00E94860F182FBE
:10219000C82EDD24C7FCD0940E946B3A882319F422
:1021A000EE24FF2418C0C0E0D0E031E0E32EF12C93
:1021B00080E090E0880F991F880F991F815B9E4FE8
:1021C0000E94860F882311F0EE24FF242196CE0171
:1021D000CB30D10579F780911F0190912001E8164D
:1021E000F906C9F0E114F10459F081E00E94333C92
:1021F00080E00E94333C00E02FE041E060E004C05A
:1022000000E02FE040E061E081E00E94B927F09219
:102210002001E0921F018091210190912201C816B6
:10222000D906A1F0112339F0EF2829F000E02FE0C2
:1022300040E061E004C000E02FE041E060E082E0C7
:102240000E94B927D0922201C09221018FE791E02C
:102250000E94860F282FC82FDD27C7FDD0958091BB
:102260001D0190911E01C817D907A9F0222341F042
:102270000E94870D61E08BE791E00E944D1007C03E
:1022800060E08BE791E00E944D100E944D0DD093CD
:102290001E01C0931D01E8E0CDB7DEB70C94E50B3D
:1022A0000E9450600895FC01CB01648175812281F8
:1022B0003381820F931F0E9450110895FF920F9354
:1022C0001F93CF93DF93EC018A819B81EE81FF8185
:1022D000E80FF91FF0806C817D8101960E945011FA
:1022E0009B838A838F2D9927E5E0CDB7DEB70C94C9
:1022F000E80B0F931F93CF93DF938C010E94531130
:10230000E801EE81FF81E80FF91F80819927DF91B5
:10231000CF911F910F9108950F931F938C010E94ED
:102320005311F801938382831F910F91089583E2E3
:1023300091E00E945E1199270895BC0183E291E02B
:102340000E94791199270895E0912901F0912A01BD
:102350002091230130912401E20FF31F80836091CB
:102360002701709128018091230190912401019609
:102370000E94501190932401809323010895BC0181
:1023800083E291E00E948C11089560912701709181
:1023900028018091250190912601860F971F209199
:1023A000230130912401821B930B01970E9450114D
:1023B0000895BC0183E291E00E9453110895909327
:1023C0002601809325010895FB01882331F4809133
:1023D0009A02808380E090E00895813019F081E0D6
:1023E00090E0089580919B02808380E090E00895C2
:1023F0008091CE048F5F8F738093CE0499270895C8
:102400008093CD040895FFCFFF92282F80E090E0C5
:10241000E7E8F1E0F6902F1511F4992707C001962F
:1024200036968C309105B1F78FEF90E0FF900895CC
:102430000E94FD1763EE72E080E00E94690E0E9428
:10244000FD176AEB72E080E00E94690EA895FECF4E
:102450000F931F93CF93DF93EC018B012091230106
:10246000309124014091270150912801421B530BC8
:1024700046175707D8F48091290190912A01BE018F
:10248000820F931F0E94305980912701909128015B
:102490002091230130912401821B930B081B190BFF
:1024A000C80FD91F10922401109223018091290195
:1024B00090912A012091230130912401A801BE01AD
:1024C000820F931F0E94305960912701709128015B
:1024D0008091230190912401800F911F0E9450113F
:1024E0009093240180932301DF91CF911F910F914D
:1024F00008958F92AF92BF92CF92EF920F93CF93A6
:10250000DF93CDB7DEB728970FB6F894DEBF0FBEC6
:10251000CDBF87709981987F982B99836F708A813E
:10252000807F862B8A83220F220F2B8380913A0291
:102530008C834D830370EE0CEE0CE02AEE82CF828A
:10254000888668E070E0CE0101960E9428126885B6
:102550007727C5010E94281228960FB6F894DEBF8F
:102560000FBECDBFDF91CF910F91EF90CF90BF9075
:10257000AF908F900895EF92FF920F931F93CF9398
:10258000DF93EC017B018A016A817B814C815D8153
:10259000461B570B4017510798F48E819F81680F97
:1025A000791FC7010E9430598C819D812A813B810E
:1025B000821B930B081B190BE80EF91E1B821A8253
:1025C0006E817F818A819B81680F791FA801C70175
:1025D0000E9430596C817D818A819B81800F911F7F
:1025E0000E9450119B838A83E6E0CDB7DEB70C943E
:1025F000E70BAB01BC0183E291E00E94BB1208959E
:10260000EF92FF920F931F93CF93DF93EC018B0117
:102610006091020682E492E00E948E2BFC012781E9
:10262000308580913C0280FF29C08CEFE82E8FEF2F
:10263000F82EE222F3228091990287FF04C086EBF4
:1026400092E00E94860F882319F041E050E002C01A
:1026500042E050E04E295F29209749F0CE01809555
:102660009095482359230C231D23402B512B20E008
:102670006091020682E492E00E94AA2CE6E0CDB7C7
:10268000DEB70C94E70B8091CD04882311F00E94F3
:10269000010C0895A0E0B0E0E0E5F3E10C94B70B85
:1026A000182FF62E942EB22ED02E0E2DEC2CCA2CD6
:1026B000A82C8A88862F0E947754FC01892B19F454
:1026C00080E090E002C081859927881518F481E0A8
:1026D00090E01EC01770143019F480E090E018C02C
:1026E0008B899C899F938F938F92888999899F93D7
:1026F0008F938F842D2D4B2D692D8F2D0E9400548B
:10270000992787FD90950F900F900F900F900F9045
:10271000ECE00C94E10B8F92AF92CF92EF92FF928C
:102720000F931F93FB017A01D80132815581152F38
:102730001370032F0695069501604181642F6F7019
:1027400070817770BF93AF932F93FF92EF92968132
:102750009F933370832E56955695A52EC380E12EF8
:10276000248142954F70872B0E944A132DB73EB7A4
:102770002A5F3F4F0FB6F8943EBF0FBE2DBF99277B
:1027800087FD90951F910F91FF90EF90CF90AF90A4
:102790008F900895A0E0B0E0E0EDF3E10C94B30B6E
:1027A000942E302FBE2CDA2C6E887F884DB65EB604
:1027B00080913C02867019F080E090E0EFC04D8976
:1027C000E42EFF24C7010796EDB7FEB7E81BF90B0F
:1027D0000FB6F894FEBF0FBEEDBF0DB71EB70F5F6B
:1027E0001F4F892D8E7F81833370220F220F232B61
:1027F000F801218342E050E060E070E0C8010E94EF
:10280000E9588195F8018283B382F3E0DF22CC0C92
:10281000CC0CCD28F801C4828582A7016B897C8904
:10282000C80106960E94305943E050E0E40EF51EC0
:10283000A701662757FD6095762F8DEF9FEFE80E75
:10284000F91EC80103960E94E958F701E00FF11F35
:10285000819586830E9499605C0155E0D52E20C049
:102860004D894A5FB8016F5F7F4F892D9927906C22
:102870000E948909882309F45EC0843019F442E07B
:10288000D42E0EC0813019F434E0D32E09C082302A
:1028900019F423E0D22E04C0833011F096E0D92E33
:1028A0000E9499608A199B0968167906C8F6AD2CB2
:1028B000DD2009F441C00E94E91780919C0281FF4C
:1028C00005C067E473E080E00E94690E92E0A916FB
:1028D00039F480919C0281FF5DC06EE373E009C012
:1028E000E4E0AE1651F480919C0281FF53C06EE289
:1028F00073E080E00E94690E4DC0F3E0AF1639F43A
:1029000080919C0281FF46C068E273E0F2CF45E00F
:10291000A41639F480919C0281FF3CC06DE173E004
:10292000E8CF56E0A516B1F580919C0281FF32C038
:102930006CE073E0DECFAA2480919C0284FF2AC061
:1029400061E073E080E00E94690ECC24DD2408C0C1
:10295000608180E00E94B40E60E280E00E94460E3A
:102960008C2D0894C11CD11C992797012A5F3F4FD9
:10297000F801E80FF91F8217930754F3608180E094
:102980000E94B40E6DE580E00E94460E6AE080E091
:102990000E94460E8A2D992787FD90950FB6F894D0
:1029A0005EBE0FBE4DBEE0E10C94DD0B0F931F9396
:1029B000CF93DF93082F162F862F8F7719F4CFE24E
:1029C000D0E013C0813019F4C7E1D0E00EC08230EE
:1029D00019F4CBE0D0E009C0833019F4C7E0D0E0AF
:1029E00004C08430C1F5C3E0D0E082EB92E00E94E5
:1029F000A1600023B1F410939A0261E070E08AE9CB
:102A000092E00E94DF5566EA74E06859724041E046
:102A100050E08AE992E00E946E0BCE010E94FD0810
:102A200017C00130C1F410939B0261E070E08BE9A4
:102A300092E00E94DF5567EA74E06859724041E015
:102A400050E08BE992E00E946E0BCE010E941909C2
:102A500080E090E002C081E090E0DF91CF911F9193
:102A60000F910895A9E2B0E0E8E3F5E10C94B90B09
:102A7000A89580E090E0892B11F00E9400000E9450
:102A800079470E9462568091220399278F77429757
:102A900011F40E94544260919A0280E00E94D61480
:102AA00060919B0281E00E94D6146FE472E080E0A6
:102AB0000E94690E0E94FD176BE372E080E00E94A5
:102AC000690E62E080E00E94CF0E6EE280E00E941C
:102AD000460E60E080E00E94CF0E6EE280E00E9431
:102AE000460E60E080E00E94CF0E6AE272E080E075
:102AF0000E94690E0E94FD176BEF71E080E00E945A
:102B0000690E0E94FD176EEE71E080E00E94690E72
:102B10008091220399278F778332910529F0C497FA
:102B200031F469EE71E005C064EE71E002C06FED52
:102B300071E080E00E94690E6FEC71E080E00E941D
:102B4000690E0E943E08BC0180E00E94690E6AE0A6
:102B500080E00E94460E809122038F7780932203AB
:102B60000E9480100E94803D0E9475250E947B3C3F
:102B700080912203823139F400E021E040E061E0FD
:102B800080E00E94B9270E94A2280E9420668091BE
:102B90002203823141F40E94BC2B81E00E94D53B8C
:102BA00081E00E94333C80912203833231F4809192
:102BB000B30281FD02C00E94BC2B0E947210B09033
:102BC00098028FEFB81609F04FC087EA92E00E9492
:102BD0006A10BB2400E010E080E090E0EE24FF24C7
:102BE000880F991F880F991F85569D4F0E94860F49
:102BF000882349F081E090E00E2C02C0880F991FD5
:102C00000A94E2F7B82A0F5F1F4FE2E0F0E0EE0E01
:102C1000FF1EC8010330110519F787EA92E00E94F0
:102C20006E1000E010E080E090E0EE24FF24880FBA
:102C3000991F880F991F85569D4F0E94860F8823E4
:102C400049F082E090E00E2C02C0880F991F0A9490
:102C5000E2F7B82A0F5F1F4F82E090E0E80EF91EFE
:102C6000C8010330110519F7B092C5070E94FD177E
:102C700061E872E080E00E94690ECC24DD2404E06B
:102C800010E0EB2DFF27002E02C0F595E7950A9482
:102C9000E2F7E370F070EA56FD4FF6906F2D80E09A
:102CA0000E94460E0894C11CD11C0250104093E0B3
:102CB000C916D10431F76AE080E00E94460E8B2DE0
:102CC0000E94041280933B028F3F49F40E94FD173B
:102CD00065E672E080E00E94690E0E941812E6E04C
:102CE0008E9FF0011124E857FE4FF690F0923A02C1
:102CF0008F2D0E945C090E9455090E94FD1764E512
:102D000072E080E00E94690E60913A0280E00E94C9
:102D1000B40E62E572E080E00E94690E80913A0292
:102D2000809355027894109201010E94104A80917C
:102D30002203823141F40E9458426FE370E080E048
:102D400090E00E943E45A8950E94425488E0FE0112
:102D5000329611928A95E9F7A4C0A89585E191E091
:102D60000E945E11E82EEFE7FE2EF822CF2CDD2424
:102D7000B60185E191E00E9453115C0180919C02B3
:102D800084FF22C06BEA72E080E00E94690E00E0DE
:102D900010E00FC060E280E00E94460EB80185E1BD
:102DA00091E00E947911682F80E00E94B40E0F5FBD
:102DB0001F4F0C151D0571F76DE580E00E94460E52
:102DC0006AE080E00E94460EE7FE16C0E7E0EF15DD
:102DD00008F063C061E070E085E191E00E948C1131
:102DE00060E070E085E191E00E94791190913A02F3
:102DF000891709F052C0FA9479EFD72EDF0CF9E168
:102E0000FD1508F44AC0EF2CFF2487010F5F1F4F08
:102E10000E94C5118017910708F43FC08E01065F1C
:102E20001F4FA701B80185E191E00E94BB1243E06A
:102E300050E060E070E0C8010E94E958882369F51D
:102E40008A858D838B858C838DEF9FEFE80EF91E2D
:102E5000A701662757FD6095762FCE010D960E943B
:102E6000E9588823D1F48D858E838E858F838F8555
:102E700088878A81807F82608A838B81807F8B8331
:102E8000D98668E070E0CE0102960E94281269851A
:102E90007727CE0140960E942812B0921801A09286
:102EA0001701209115013091160180911701909121
:102EB00018012817390709F050CF5CC0A8958E017A
:102EC0000E5F1F4F78010E949711F80181938F01C7
:102ED000C7010896E817F907B1F7898599270E9475
:102EE000D9116C0162E0E62EF12CEC0EFD1EC7013B
:102EF0000E94011D182F8823C9F19C81892F83709E
:102F0000D9F4892F8C7F883B21F4C7010E94AA2223
:102F100012C096959695892F99278E7F8C9741F4AC
:102F20000E949711882341F4C7010E94E01F03C04B
:102F3000C7010E941D1B182F17FF18C09C81892FE5
:102F40008695869580FD12C0937011F082EC01C0C9
:102F500081EC898304E610E021E0AE014F5F5F4F12
:102F6000BE016E5F7F4F80E00E948B13D0922601DE
:102F7000C0922501209123013091240180912501E7
:102F8000909126012817390709F098CF60E070E08A
:102F900080E090E00E9400130E943166D4CEAB0125
:102FA00064E573E00E943E59089580919C0283FF7E
:102FB00005C064E773E080E00E94690E0895809187
:102FC0009C0282FF05C06AE773E080E00E94690E00
:102FD000089580919C0281FF05C060E873E080E065
:102FE0000E94690E089580919C0280FF05C066E8EA
:102FF00073E080E00E94690E08956CE873E080E061
:103000000E94690E0895EF92FF921F93CF93DF9372
:1030100080913D0290913E02892BA9F16EE673E00A
:1030200080E00E94690E80913F0290914002892BBE
:1030300019F469E673E002C064E673E080E00E9480
:10304000690E87ECE82E87E0F82E10E0C0E0D0E0B3
:1030500007C0F70111917F01612F80E00E94460EA9
:103060009E01219680913D0290913E0228173907DA
:1030700084F31A3021F06AE080E00E94460E10923C
:103080003E0210923D02DF91CF911F91FF90EF9091
:1030900008950F931F93082F162F80919C0283FF92
:1030A00073C080913D0290913E02892B69F0202FE0
:1030B000332727FD309580913F029091400282177F
:1030C000930711F00E9403181B3511F41BE703C08E
:1030D0001D3509F41DE78091C6078D3019F41A30AB
:1030E00041F404C08A3029F41D3099F51092C607C6
:1030F0004BC01093C6071D3079F1802F992787FDAB
:1031000090959093400280933F0280913D02909170
:103110003E02FC01E953F84F10839C012F5F3F4FA3
:1031200030933E0220933D021A3021F020323105C7
:1031300059F503C02032310549F48EE38093E70747
:1031400081E290E090933E0280933D020E9403183A
:103150001BC01093C607D1CF802F992787FD90956C
:103160009093400280933F0220913D0230913E02B5
:10317000F901E953F84F8AE080832F5F3F4F309386
:103180003E0220933D02D6CF1F910F910895982FB4
:1031900080919C02981791F090939C0261E070E0FE
:1031A0008CE992E00E94DF5568EA74E06859724049
:1031B00041E050E08CE992E00E946E0B08950E947D
:1031C00050600895FF920F931F93CF93DF93EC010C
:1031D0008A819B81EE81FF81E80FF91FF0806C816D
:1031E0007D8101960E94DF189B838A838F2D99270A
:1031F000E5E0CDB7DEB70C94E80BFA01108284E36A
:10320000FB01818380E8828382E08383148281E5ED
:10321000858389E286838AE0878380E480871186BC
:103220008FEE82878EEB83878CE090E00895FB0120
:10323000DA018091410281831C9280E090E0089540
:10324000CF93DF93EA010E94971180FF08C080911D
:103250002B0190912C0190932E0180932D011882C7
:1032600080E090E0DF91CF910895CF93DF93EA0162
:103270000E94971182FF03C08CEC888304C0817286
:1032800080934102188280E090E0DF91CF91089511
:103290000F931F93CF93DF93EB018A010E94971145
:1032A000882339F4198282E08A831B82F801108214
:1032B00003C089ECF801808380E090E0DF91CF913A
:1032C0001F910F9108956F927F928F92AF92CF923C
:1032D000DF92EF920F931F93CF93DF93CDB7DEB7BB
:1032E000A1970FB6F894DEBF0FBECDBF6C013A01B7
:1032F000FC0180818770823020F0863011F081ECF3
:1033000005C0F6018781882321F48CECF3018083CA
:10331000B9C061E070E0CE0101960E94F912998176
:10332000892F807391F7892F807C803871F39F708B
:1033300061F7F601878188508A3138F7809150050E
:10334000882311F080ECE2CF0E949711082F992773
:1033500080FDDBCF90935C0580935B050E94971105
:10336000182F86958695282F332730935E05209356
:103370005D05812F992783709070909360058093ED
:103380005F058981807C803411F420FDBECF0E94CE
:103390009711180F010F09F0B8CF0E949711082F4D
:1033A00080FDB3CF809361050E949711182F8695F9
:1033B000869580936205812F8370809363050E94B8
:1033C0009711180F100F80936405F601E780F8EF4E
:1033D000EF0E00E008C00E949711180FFE01E00FE9
:1033E000F11D82830F5F0E15B1F70E949711180F20
:1033F00009F08BCFA3E5B5E0F60188E001900D92CE
:103400008150E1F784E690E09F938F93EF92CE0195
:1034100002969F938F93809164058F9380906305AC
:10342000A0906205C0906105E0905F0500915D0588
:1034300020915B0540E060E082E00E944A132DB7D6
:103440003EB72A5F3F4F0FB6F8943EBF0FBE2DBF69
:10345000843011F483E85ACF882311F082E856CFE4
:103460008981807C803461F40E9499609093520538
:103470008093510581E0809350058FEF9FEF04C04A
:10348000F301108280E090E0A1960FB6F894DEBFC1
:103490000FBECDBFDF91CF911F910F91EF90DF90C5
:1034A000CF90AF908F907F906F900895A1E0B0E0A3
:1034B000ECE5FAE10C94BF0B809150058823D1F024
:1034C0000E9499602091510530915205821B930B07
:1034D000855F914078F083EC898304E610E021E079
:1034E000AE014F5F5F4F63E575E080E00E948B1394
:1034F00010925005E4E021960C94E90B4F925F92F4
:103500006F927F928F929F92BF92CF92DF92EF92B3
:10351000FF920F931F93CF93DF93CDB7DEB77C015C
:103520003B014A014DB65EB6FC018781843010F440
:103530008CEC20C00E9497118823D9F40E94971127
:10354000182F0E9497119927D82ECC24C10ED11C78
:10355000F701B780FDEFBF0EC601AA27BB278B0D71
:10356000911DA11DB11D81509240A040B04028F492
:1035700006C089ECF401808324C08BECFBCF0B2DBB
:1035800011278DB79EB7801B910B0FB6F8949EBF85
:103590000FBE8DBFEDB6FEB60894E11CF11CB8015C
:1035A000C7010E94F912A801B601C7010E946E0B63
:1035B0008017910711F080ECDDCFF301B182F401A7
:1035C000108280E090E00FB6F8945EBE0FBE4DBE54
:1035D000DF91CF911F910F91FF90EF90DF90CF90EF
:1035E000BF909F908F907F906F905F904F900895C5
:1035F0000F931F938A0184E30E940012F801108246
:1036000080E090E01F910F9108950F931F938A011E
:1036100083E20E940012F801108280E090E01F9186
:103620000F9108950E947754FC01892B19F480E0D2
:1036300090E008958185992708954F925F927F9237
:103640008F929F92AF92BF92CF92DF92EF92FF92B2
:103650000F931F93CF93DF93CDB7DEB721970FB6AC
:10366000F894DEBF0FBECDBF6C014DB65EB61982B9
:10367000FC01828186958695A82FBB2760E070E0CB
:1036800006E913E05EEF852E5FEF952E800E911E0A
:1036900058010894A108B108A8014350504098016E
:1036A00024503040F901E690FF24EA16FB0609F0A9
:1036B0005CC0FA01F690F6018681F81609F055C053
:1036C000A0FD2FC0F501F6901F1414F4769006C0EB
:1036D000F60181818F700E94121B782E8DB79EB7E4
:1036E000871991090FB6F8949EBF0FBE8DBFADB676
:1036F000BEB60894A11CB11CF401F690F7FC14C0EE
:10370000F60187819927F401E690FF24E7FCF09405
:103710008E159F0549F087EC8983EDB7FEB781834D
:1037200039C0AA24BB247724F801F6902F2D332723
:103730000F5F1F4FF801E690FF24FE2CEE242E2988
:103740003F29AE014F5F5F4FB501C601F9010995F1
:10375000982FF60182818695869580FD25C097FD7C
:1037600023C0992321F1792E22C06F5F7F4F2A5FFA
:103770003F4F4A5F5F4F86E090E0A80EB91E880E6B
:10378000991E0A5F1F4F6332710509F08BCF8FEFCF
:103790009FEF13C031E0732E04E610E0272DA50142
:1037A000B60180E00E948B1380E090E006C0898122
:1037B000F5018083882371F7EFCF0FB6F8945EBED2
:1037C0000FBE4DBE21960FB6F894DEBF0FBECDBF23
:1037D000DF91CF911F910F91FF90EF90DF90CF90ED
:1037E000BF90AF909F908F907F905F904F90089583
:1037F000AF92BF92CF92DF92EF92FF921F93CF933F
:10380000DF93EC015B016A010E9497118823D1F4D8
:103810000E949711182F0E9497119927F82EEE24D5
:10382000E10EF11C0E949711182FC701AA27BB2790
:10383000810F911DA11DB11D81509240A040B0404B
:1038400018F408C089EC01C08BECF601808380E09D
:1038500090E021C089818F700E94121BC12FDD274B
:10386000992702978C179D0714F48AECEECFF50187
:103870001183AE01B701C50102960E948F0BC817D4
:10388000D90711F080ECE1CFF60110821E5F812F85
:10389000992787FD9095DF91CF911F91FF90EF9031
:1038A000DF90CF90BF90AF9008954F925F927F923C
:1038B0008F929F92AF92BF92CF92DF92EF92FF9240
:1038C0000F931F93CF93DF93CDB7DEB78C014B01DE
:1038D0006A014DB65EB60E949711282F86959927EA
:1038E00087709070892B39F420FF05C00E949711D2
:1038F000782E80FF02C08CEC62C00E949711E82EE7
:10390000882319F0AA24BB2403C0A12C70E4B72E8D
:10391000F80181818F700E94121B2E2D3327992769
:1039200001978217930714F48AEC49C0F801F780D5
:10393000FDEFFF0E29F16F2D77272DB73EB7261B20
:10394000370B0FB6F8943EBF0FBE2DBF0DB71EB795
:103950000F5F1F4FC8010E94F912872D9927E0E0E1
:10396000F0E8AE2ABF2A4F2DB8018A299B290E9470
:103970003E0DF81629F08091C6048130D9F01EC0A2
:10398000EE2011F421E022C00894811C911C872DA7
:1039900099274E2DB4018160906C0E943E0D982FA6
:1039A000E81691F08091C604813041F4FF2021F4A3
:1039B000992311F483E803C084E801C082E8F6018A
:1039C000808380E090E008C02E2D2F5FF6011082EA
:1039D000822F992787FD90950FB6F8945EBE0FBE93
:1039E0004DBEDF91CF911F910F91FF90EF90DF902F
:1039F000CF90BF90AF909F908F907F905F904F90AF
:103A00000895A9E2B0E0E7E0FDE10C94B90B6C0188
:103A1000198280915005882309F48DC0F601228116
:103A2000822F86958695682F772780915D059091E6
:103A30005E0581606817790709F07DC0A22FA37029
:103A40002A2F33278091630599272817390709F012
:103A500072C0B4812B2F332780915B0590915C0558
:103A60002817390709F067C02581822F869586952A
:103A7000482F55278091620599274817590709F063
:103A80005AC0122F1370212F332780915F05909118
:103A900060052817390709F04EC02681809164051A
:103AA000281709F048C08781813208F07DC01A824A
:103AB000809161058B83660F771F660F771F9A2FA2
:103AC000962B9C83980F91959D83BE83440F551F21
:103AD000440F551F812F842B8F832887FB2EF80ED0
:103AE000F20EAA24BB2407C00E9497110E0D111DCF
:103AF000F8018083F80EEA2CF60187810894A11C56
:103B0000B11C8E01075F1F4FE81670F3080F111DDF
:103B1000F194F801F082F6012781285F04E610E0B5
:103B2000AE014E5F5F4F63E575E080E00E948B134E
:103B30001092500539C0F601B2808B2D837082300F
:103B400009F0A6C080818770823009F0A1C0009181
:103B50002F0110913001E0902B01F0902C01809109
:103B60002D0190912E01800F911F8E199F09B80190
:103B700001970E94DF18F60127813327285F3F4F06
:103B800082179307A0F48B2D8695869580FD0CC037
:103B900080EC898304E610E021E0AE014F5F5F4FC7
:103BA000B60180E00E948B1380E090E073C0B60104
:103BB000A8014E195F094830510518F008E010E0DF
:103BC0001EC08091310190913201B6018E0D9F1D72
:103BD0000E94305980912F019091300120912B014A
:103BE00030912C01821B930B08E010E0081B190B8D
:103BF000B601680F791F10922C0110922B01809151
:103C000031019091320120912B0130912C01A801BA
:103C1000820F931F0E94305960912F0170913001E3
:103C200080912B0190912C01800F911F0E94DF1831
:103C300090932C0180932B0100E010E01CC00E94A7
:103C40009711E0913101F091320120912B013091D7
:103C50002C01E20FF31F808360912F0170913001DE
:103C600080912B0190912C0101960E94DF18909376
:103C70002C0180932B01902F0F5F1F4FF60187813E
:103C80009817E8F281E080934F050E94B23A8CCFFA
:103C90008FEF9FEFEAE0A9960C94E30BA8E0B0E069
:103CA000E4E5FEE10C94B70B5C014B016A01FC01F9
:103CB00080818770813021F0863011F08FEF0CC049
:103CC00020912B0130912C0180912D0190912E019A
:103CD0002817390731F480E8F601808380E090E00E
:103CE00081C07E010894E11CF11C8BE291E00E94EE
:103CF000E218F70181937F01CE010996E817F907D1
:103D0000A1F708851127F50181818F700E94121B90
:103D1000992708978017910798F460912F01709167
:103D20003001288580912D0190912E01820F911DE7
:103D30000E94DF1890932E0180932D018AECCCCF46
:103D400074010894E11CF11CF6011082F401118247
:103D50008B81F701818341E050E060E070E0C701B2
:103D600001960E94E958F70182838D8183838E81B9
:103D700084838F81858300E010E008C08BE291E0AE
:103D80000E94E218F701ED0DF11D8683D02E888583
:103D90000F5F1F4FD81690F3082F11270D5F1F4F8D
:103DA000A8016627772703501040C70103960E9499
:103DB000E9580E0D1F1DF801868310924F052091C2
:103DC0002B0130912C0180912D0190912E0128170B
:103DD000390719F081E080934F058885885F99271E
:103DE00087FD9095ECE028960C94E10BFB01DA013D
:103DF00040912B0150912C0120912D0130912E01E9
:103E000080913C02887F11F090E201C090E080E058
:103E10004217530709F081E0892B81831C9280E0CF
:103E200090E00895FB01DA0184E182831382148219
:103E30001C9280E090E00895A2E0B0E0E2E2FFE1B1
:103E40000C94BF0B69831A8204E610E022E0AE01F5
:103E50004F5F5F4FBC0180E00E948B1320E030E099
:103E6000882311F021E030E0C901E4E022960C94AF
:103E7000E90BFF920F931F93CF93DF93EB018A011E
:103E8000FC018781833010F087EC07C0823041F459
:103E90000E949711882321F08CECF80180831CC0CC
:103EA0009FEF9A8380913A028B839C831D82E091DD
:103EB0003B0286E0E89FF0011124E457FE4FF690A4
:103EC000FE82E0913B02E89FF0011124E557FE4F8E
:103ED000F690FF82F801108280E090E0E5E0CDB737
:103EE000DEB70C94E80BA0E0B0E0E9E7FFE10C944A
:103EF000BB0B8B016A010E949711E82E82E492E0CD
:103F00000E9428289C01C0E0D0E01CC0F901339633
:103F1000F6908F2D823119F4EE2069F41BC0F690D3
:103F20008F2D813141F42A5F3F4FF901F6902650E1
:103F30003040EF1479F0B90182E492E00E942C281D
:103F40009C0121969C2F2115310501F78DECF6017E
:103F5000808305C0F80192831382F601108280E00D
:103F600090E0E8E0CDB7DEB70C94E50B0F931F931C
:103F7000CF93DF938C01EA010E949711882311F0FF
:103F80008DEC0DC08091CC0480FF04C0188280E0CD
:103F900090E011C080913C0280FD03C081ED8883D8
:103FA000F6CF0E949711AE01682FC8010E944D3BC9
:103FB000992787FD9095DF91CF911F910F910895DB
:103FC000A6E0B0E0E6EEFFE10C94B10B6C012DB77A
:103FD0003EB73E832D831982222433241C821B8208
:103FE0001A8208E614E02EEF822E2FEF922E800E1A
:103FF000911E58010894A108B1089CEF692E9FEF0B
:10400000792E600E711E23010894411C511CF2018F
:10401000E6902E2D3327F601828186958695992785
:10402000817090702817390709F069C0F301F69084
:10403000F6018681F81609F062C0EE2009F03EC054
:10404000F501F6901F141CF4F690FC820FC0F601E7
:1040500081818F700E947754FC01892B19F420E034
:1040600030E003C08185282F33272C83FC814F2F1C
:1040700055272DB73EB7241B350B0FB6F8943EBF1E
:104080000FBE2DBF2DB63EB60894211C311C60E03A
:1040900070E0C1010E947859F401F690F7FC0EC05F
:1040A000F60187819927F401E690FF24E7FCF0945C
:1040B0008E159F0519F087EC898321C0F801F690D1
:1040C0002F2D33270F5F1F4FF801E690FF24FE2CA2
:1040D000EE242E293F29AE014F5F5F4FB101C6018B
:1040E000F9010995982FF60182818695869580FDC4
:1040F00035C097FD33C09923F1F09C831CC02A8101
:104100003B812F5F3F4F3B832A8386E090E0480E40
:10411000591E680E791EA80EB91E880E991E0A5FD8
:104120001F4F2831310509F072CF8981882319F496
:104130008FEF9FEF15C08981F10180831182FC818F
:10414000FF2321F4882311F022E02C8304E610E001
:104150002C81A101B60180E00E948B1380E090E0E9
:10416000ED81FE810FB6F894FEBF0FBEEDBFE2E118
:1041700026960C94DB0BFC014083BB27A72F962FC0
:10418000852F8183AB016627772742830895EF92BD
:10419000FF920F931F93FC017A018B018081992775
:1041A000AA27BB279A01AB0130704070507082176C
:1041B0009307A407B50709F581819927AA27BB278B
:1041C0002F2D33274427552782179307A407B507B8
:1041D000A1F460E082819927AA27BB27202F3327EB
:1041E0004427552782179307A407B50709F061E014
:1041F00081E06827862F992702C080E090E0992708
:1042000087FD90951F910F91FF90EF900895FC010D
:104210009B01808187FD05C04AE050E460E070E0CA
:1042200004C040E050E46AE070E0C9010E94BB2095
:104230000895FB01DA0180913C0284831782168283
:10424000158280914F05882311F080E187831C92AD
:1042500080E090E00895FB01DA0180919C02848364
:104260001C9280E090E00895FB01DA018091C5077F
:1042700084831C9280E090E00895FB01DA01809134
:104280009F0284831C9280E090E00895FB01DA0194
:1042900080919D02848380919D0290919E02892F3E
:1042A000992785831C9280E090E00895FA0180911F
:1042B0003C028E7F80933C02108280E090E0089563
:1042C000FA0180913C02816080933C02108280E080
:1042D00090E00895FB01DA018091990287FD82E068
:1042E00084831C9280E090E008950F931F938A01CD
:1042F0000E9497118093CC04F801108280E090E036
:104300001F910F9108950E940312CF93DF93EA014A
:104310000E949711882319F08CEC888304C082E1F5
:104320000E940012188280E090E0DF91CF91089502
:104330000F931F93CF93DF938A0180913C0280FDFE
:1043400002C081ED05C00E949711833020F08CECF3
:10435000F801808318C0C5EAD4E0823009F48FEFF9
:104360008093990261E070E089E992E00E94DF5554
:10437000C859D24041E050E0BE0189E992E00E9474
:104380006E0BF801108280E090E0DF91CF911F91D9
:104390000F910895EF92FF920F931F937A010E945D
:1043A0009711082F0E94971111279927982F882776
:1043B000082B192B10939E0200939D020DE912E029
:1043C00062E070E0C8010E94DF5569EA74E0685954
:1043D000724042E050E0C8010E946E0BF70110826B
:1043E00080E090E01F910F91FF90EF900895EF9281
:1043F000FF920F931F937A010E94971180939F025F
:104400000FE912E061E070E0C8010E94DF556BEA3D
:1044100074E06859724041E050E0C8010E946E0BA0
:10442000F701108280E090E01F910F91FF90EF90D4
:1044300008951F93CF93DF93EA010E949711182FDD
:104440008F3F39F00E9404128F3F19F48CEC88835F
:1044500013C01093980261E070E088E992E00E9436
:10446000DF5564EA74E06859724041E050E088E941
:1044700092E00E946E0B188280E090E0DF91CF9175
:104480001F9108950F931F938A010E9497118F71B6
:104490000E94C718F801108280E090E01F910F91F0
:1044A0000895A0E0B0E0E7E5F2E20C94B90B6C01EE
:1044B0007B01EA010E949711A82E81E08A1540F045
:1044C0000E949711B82E99278F77907005972CF03E
:1044D0008CEC888380E090E016C0F7011192BF0158
:1044E000C6010E94072104E610E024E0A701B601FE
:1044F00080E00E948B13882321F46B2D8A2D0E946B
:10450000D6148FEF9FEFEAE0CDB7DEB70C94E30B44
:10451000A1E0B0E0EEE8F2E20C94BD0B7B018A0171
:104520000E949711823038F4BE016F5F7F4F0E9466
:10453000E411882321F08CECF801808305C0898187
:10454000F7018483F801108280E090E0E6E0219694
:104550000C94E70B4F925F927F928F929F92AF9253
:10456000BF92CF92DF92EF92FF920F931F93CF9360
:10457000DF93CDB7DEB724970FB6F894DEBF0FBE3A
:10458000CDBF6C014DB65EB61982FC0187818330C8
:1045900008F4B6C00E9497118A830E9497118B83FA
:1045A0000E9497118C838E010E5F1F4F4AE050E4EA
:1045B00060E070E0C8010E94C7208823C9F440E091
:1045C00050E46AE070E0C8010E94C720882309F423
:1045D00097C0F6018081806880830E94F3178091E4
:1045E0009C0280FF05C068E575E080E00E94690ECE
:1045F000F601468120E030E007EF14E06EEF862EF2
:104600006FEF962E800E911ED8011197C801039767
:10461000FC01F690F41609F04CC0FD01F6901F1451
:1046200014F476900FC0F60181818F700E94775448
:10463000FC01892B19F420E030E003C08185282F8C
:104640003327722E6DB77EB7671971090FB6F894CC
:104650007EBF0FBE6DBFADB6BEB60894A11CB11C27
:10466000F401F690F7FC0BC0F60187819927F4015D
:10467000E690FF24E7FCF0948E159F0541F5F801C4
:10468000F6902F2D33270F5F1F4FF801E690FF2480
:10469000FE2CEE242E293F29AE014F5F5F4FB5015E
:1046A000C601F9010995882344F1882391F0782EF9
:1046B00010C02F5F3F4F0596159665E070E0860E9F
:1046C000971E0B5F1F4F24313105D1F0A1CF87EC2E
:1046D00089838981F5018193BF01C6010E94072169
:1046E0008981882311F044E0742E04E610E0272D20
:1046F000A501B60180E00E948B1380E090E002C02B
:104700008FEF9FEF0FB6F8945EBE0FBE4DBE24969E
:104710000FB6F894DEBF0FBECDBFDF91CF911F91D2
:104720000F91FF90EF90DF90CF90BF90AF909F9050
:104730008F907F905F904F900895DC01FC01808501
:1047400087FD25C085FF02C080E001C082E0FD0139
:10475000E80FF11D91818081882339F4FD01818565
:1047600081FD0CC08085877F08C0992359F4FD0125
:10477000818581FD03C0808588608087FD018085FB
:104780008F7E03C0FD018085806180870895982F0A
:104790009F7EFD019087818581FD02C09860908792
:1047A0000895FF920F931F93CF93DF93EB018A013C
:1047B0000E949711882321F40E949711833030F0D2
:1047C0008CECF801808380E090E023C0282F332711
:1047D000F901E458FA4FF690FA82F901E158FA4FDC
:1047E000F6908F2D8F708B83F690F694F694F69456
:1047F000F694FC8227583A4FF901F690FF2011F405
:1048000085E002C0FD8286E0F8011082992787FDCD
:104810009095E5E0CDB7DEB70C94E80B0F931F93AE
:10482000CF93DF93EB018A010E949711882321F037
:104830008CECF801808305C087E08A831B82F80135
:10484000108280E090E0DF91CF911F910F91089549
:10485000A0E0B0E0EEE2F4E20C94B70B8B014A0169
:104860000E949711882331F40E949711E82EF2E0FC
:10487000F81720F48CECF401808385C0282F3327AF
:104880008AE090E0289F6001299FD00C389FD00CCF
:10489000112488EE97E0C80ED91E82E0A82EB12C14
:1048A000A00EB11EF6018085982F991F9927991F98
:1048B000990F990F85FF02C080E001C082E08160FE
:1048C000982BF5019083E901C758DA4FFE01F69065
:1048D000F0FE08C00E946B3A882321F4F501808124
:1048E00088608083FE01F690F1FE0DC080E090E0CC
:1048F000892B49F08E2D0E940000882321F0F501BC
:10490000808188608083F6018081882319F4F80112
:10491000138207C0F6018181882329F48FEFF80103
:104920008383148206C0F8018383F6018081F80135
:104930008483F60185818F70F8018583F601828179
:10494000882319F0808585FF03C0F801168207C00F
:10495000F6018381882329F48FEFF801868317827B
:1049600006C0F8018683F6018281F8018783F6018B
:10497000858182958F70F8018087F6018481F80126
:104980008187F401108280E090E0ECE0CDB7DEB7E3
:104990000C94E10BA0E0B0E0E0EDF4E20C94BA0B73
:1049A000182F282F33278AE090E0289FF001299FB5
:1049B000F00D389FF00D1124E851F84F9185892FA3
:1049C0008E7F81878085927087FF1BC09923D9F4E1
:1049D00024583A4FF901F690C0E0D0E0F694F0FE8A
:1049E0000AC088E1189FC00111248E579A4F8C0F7E
:1049F0009D1F0E946A102496C831D10509F470C029
:104A0000EDCF992331F080858295869586958370C8
:104A100003C082958695877081709581882321F0E7
:104A20007FE0F72EF92205C0F92EF694F694F6945D
:104A3000F694FA94E084E694E694E694F1E0EF22AA
:104A4000662369F124583A4FF901B69088E1189F1E
:104A5000C00111248E579A4FCF2DDD27CC0FDD1FBB
:104A6000CC0FDD1FC80FD91FCC24DD248C01B694D8
:104A7000B0FE0BC0EE2031F0FC1421F4CE010E94F8
:104A80006A1003C0C8010E946E100894C11CD11C9A
:104A90000C5F1F4FF6E0CF16D10411F1E8CF2F2D98
:104AA0003327EE2079F088E1189FC00111248E573A
:104AB0009A4F220F331F220F331F820F931F0E9422
:104AC0006A100EC088E1189FC00111248E579A4FBA
:104AD000220F331F220F331F820F931F0E946E106D
:104AE000E9E0CDB7DEB70C94E40BA0E0B0E0EBE773
:104AF000F5E20C94B70BC8EED7E08824992400EABD
:104B000012E0F8E0CF2ED12CCC0EDD1EEFE7AE2E5A
:104B1000E5E0BE2EE82C809122038231B1F4F5014C
:104B2000F690FD82F601808180628776808388819D
:104B3000F8018083898181838A8182838CEF8383DA
:104B40008D8185838C81848324C0833211F5F801A3
:104B5000808188838181898382818A8383818B8319
:104B600085818D8384818C83F60180818C7F808315
:104B70008B818C3F21F41B828081806280838C81B9
:104B8000882321F0F601808180688083CE010E9415
:104B90009D2361E08E2D0E94CA240894811C911CE3
:104BA0000894A11CB11C8AE090E0C80ED91E2A9678
:104BB0000A5F1F4F93E08916910409F0ABCFECE038
:104BC000CDB7DEB70C94E10BA0E0B0E0EAEEF5E281
:104BD0000C94BC0BE82EF62E8FEFE81661F4C0E0C3
:104BE000D0E06F2D8C2F0E94E4252196C330D10593
:104BF00009F445C0F6CF0E2D11278AE090E0089FFA
:104C0000E001099FD00D189FD00D1124C851D84F35
:104C1000888587FD34C0DFB6F8948885662341F027
:104C20006C8380688887898581FD0BC06E8303C093
:104C30008F7788871C82CE010E949D2389858160A1
:104C400089878E2D992720EA32E0FC01EE0FFF1FA5
:104C5000E80FF91FEE0FFF1FE20FF31FF482DFBE14
:104C6000C801880F991F800F911F880F991F205A24
:104C7000324066E070E0820F931F0E943E45E7E0FD
:104C8000CDB7DEB70C94E60BFF920F931F93CF9333
:104C9000DF93382F162F8F3F59F4C0E0D0E0612FFB
:104CA0008C2F0E9444262196C330D105E9F1F7CF1D
:104CB000082F11278AE090E0089FE001099FD00D9E
:104CC000189FD00D1124C851D84FFFB6F8942885ED
:104CD00025FD18C0832F9927FC01EE0FFF1FE80F59
:104CE000F91FEE0FFF1FE056FD4F8CEF838320620C
:104CF0002887CE010E949D23888587FD03C0898572
:104D000081608987FFBE20EA32E0C801880F991FC1
:104D1000800F911F880F991F205A324066E070E083
:104D2000820F931F0E943E45E5E0CDB7DEB70C949D
:104D3000E80BA0E0B0E0EFE9F6E20C94B90BD82E56
:104D4000C62EB42E122FA02E8FEFD81679F4C0E005
:104D5000D0E00A2D212F4B2D6C2D8C2F0E949926EF
:104D60002196C330D10509F455C0F3CFED2CFF24B3
:104D70008AE090E0E89EE001E99ED00DF89ED00D1B
:104D80001124C851D84F0FB7F8946A834B8390E031
:104D9000A11091E0990F88858D7D892B88871F3020
:104DA00039F4F701E158FA4FA6901A2D12951F70A9
:104DB0001E3031F08D818F701295107F812B8D8385
:104DC000CE010E949D23888587FD03C0898581606F
:104DD00089878D2D992720EA32E0FC01EE0FFF1F15
:104DE000E80FF91FEE0FFF1FE20FF31FC282B3821D
:104DF0008D8185830FBFC701880F991F8E0D9F1D61
:104E0000880F991F205A324066E070E0820F931F8E
:104E10000E943E45EAE0CDB7DEB70C94E30BA0E07C
:104E2000B0E0E5E1F7E20C94B80B6A010E9497113B
:104E3000882309F08BC00E949711A82E83508C3FC5
:104E400008F484C00E949711B82E8D5F823008F458
:104E50007DC00E949711982EFBEFBF1619F487FFB3
:104E600008C074C08B2D81508A3F18F0992009F03A
:104E70006DC00A2D1127E801C758DA4FFE01F690E0
:104E8000F0FE04C00E946B3A882369F0FE01F690A0
:104E9000F1FE0BC080E090E0892B39F08A2D0E9452
:104EA0000000882311F085ED52C00E949711282F31
:104EB000FBEFBF1609F43DC0882309F447C08750B3
:104EC000873008F443C0273020F5FFEFAF16A1F478
:104ED000ECE7F5E0822F9927E690FF24082E02C028
:104EE000F594E7940A94E2F7E0FE30C0319635E09D
:104EF000EF37F30771F0F0CF04581A4FF801E6903E
:104F0000FF24022E02C0F594E7940A94E2F7E0FE33
:104F10001DC0BB2021F400E041E060E01EC0FAEFBC
:104F2000FB1560F000E09B1408F001E04B2D692DAB
:104F300014C0692D8A2D0E94E42512C03CEFB316DF
:104F400049F4622F8A2D0E9444260AC08CECF60197
:104F5000808308C000E040E061E08A2D0E9499262D
:104F6000F601108280E090E0EBE0CDB7DEB70C9464
:104F7000E20BA0E0B0E0EFEBF7E20C94BB0BF82EF5
:104F8000D62EC42E122FE02E8FEFF81679F4C0E043
:104F9000D0E00E2D212F4C2D6D2D8C2F0E94B92786
:104FA0002196C330D10509F44BC0F3CFEF2DFF2775
:104FB0008AE090E0E89FE001E99FD00DF89FD00DD6
:104FC0001124C851D84F0FB7F8946883498390E0F3
:104FD000E11091E088858E7F892B88871F3029F426
:104FE000E158FA4FE6901E2D1F701E3021F08D8182
:104FF000807F812B8D83888585FF10C0CE010E9424
:105000009D23888587FD0AC0898581FD05C061E0F3
:105010008F2D0E94CA2402C0816089878F2D992715
:10502000FC01EE0FFF1FE80FF91FEE0FFF1FE05608
:10503000FD4FD082C1828D8185830FBF0E94504277
:10504000E8E0CDB7DEB70C94E50B82E492E008957A
:10505000FC01848195810895FF92CF93DF93FB013A
:10506000EC012E813F816217730750F43496F6905D
:10507000CF0104978F0D911D05968217930710F0AD
:1050800080E090E0DF91CF91FF9008950F931F9300
:10509000CF93DF93EC01062F6C817D8110E007C078
:1050A000101741F01F5FCE010E942C28BC01611532
:1050B0007105B1F7CB01DF91CF911F910F91089549
:1050C000FF92FC01A485B585908980E00EC0ED912A
:1050D000FC9111970190F081E02D3296F690F61632
:1050E00011F4992706C012968F5F891781F78FEF09
:1050F00090E0FF900895FC01892B19F480E090E086
:105100000895828193810895CF93DF93809106085B
:10511000882379F481E080930608C7E5D2E06881AE
:1051200082E492E00E946028899382E0C536D80725
:10513000B1F7DF91CF910895FA018DEC808380E083
:1051400090E00895ABE0B0E0E8EAF8E20C94B10B2F
:10515000609146027091470210E006C01F5F82E432
:1051600092E00E942C28BC0161157105B9F7812FCE
:10517000992790934B0280934A02A0904202B090EC
:1051800043021B864424B9C29501295F3F4FF901B0
:10519000C690DD24C5010896FC01E690FF24FE2C94
:1051A000EE24CE28DF28CD2881F0F901F690AF2D2E
:1051B000BB27FC01E690FF24FE2CEE24AE29BF297C
:1051C000FB858F2F99278D939C932224332485C2AE
:1051D00023E030E0A20EB31EF501F6906F2D772785
:1051E0000894A11CB11CF501E690FF24FE2CEE24CE
:1051F0006E297F292DEF3FEFA20EB31EF501E69039
:10520000482F5527FF24E49EC001E59E900DF49E93
:10521000900D1124680F791F24E030E0A20EB31E18
:10522000F501F6902F2D33270894A11CB11CF50130
:10523000E690FF24FE2CEE242E293F298CEF9FEFD1
:10524000A80EB91EF50196908EEF9FEFA80EB91E1D
:10525000FB01C690DD246F5F7F4FFB01E69061503C
:105260007040FF24FE2CEE24CE28DF28CD2809F440
:1052700031C280912203843309F42CC2C72CDD246F
:10528000CC0CDD1CA0914E02B0914F02AC0DBD1DA7
:105290008D919C911197892B09F0ECC1892D99274B
:1052A000849F4001859F900C949F900C1124820E46
:1052B000931EF401718360838D929C926E5F7F4F89
:1052C000FB01F6906F2D82E492E00E9446288C014B
:1052D000892B19F402E216E0CFC180914E02909121
:1052E0004F02C80ED91ED601ED91FC9113830283A3
:1052F0000E5F1F4FF801F6908F2D02501040813540
:1053000019F00EE016E0B8C10D5F1F4FF801F690DE
:105310008F2D03501040813019F00DEF15E0ACC116
:10532000065F1F4FF801E6900F5F1F4FF801F690E0
:105330000B5010405F2C56945694F3E05F224F2D93
:1053400042954F704370F6FC03C005ED15E094C123
:105350009FB7F8946E2C772466FC04C0F401848116
:105360008460848365FC04C0F4018481826084834A
:10537000F4018481816084831682158210861782ED
:105380009FBF025F1F4FF801C690DD240F5F1F4FC4
:10539000F801E690FF24FE2CEE24CE28DF28DA82E6
:1053A000C982DE01119629813327FD018181992768
:1053B000982F8827282B392BF401328721870F5FFC
:1053C0001F4FF801C690DD240F5F1F4FF801E690D4
:1053D000FF24FE2CEE24CE28DF28DA82C982298120
:1053E0003327FD0181819927982F8827282B392B76
:1053F000F401348723870F5F1F4FF801C690DD2427
:105400000F5F1F4FF801E690FF24FE2CEE24CE28FC
:10541000DF28DA82C98229813327FD01818199271A
:10542000982F8827282B392BF4013687258706509B
:105430001040F801F6908F2D0D5010408F7781307D
:1054400009F048C163FE6CC04150423008F068C0AA
:10545000D4018D919C911197FC01F6904F2D552709
:105460009C012F5F3F4FF901E690FF24FE2CEE24B4
:105470004E295F29465F5F4FFA01C690DD24FC018B
:10548000F6908F2D9927F901E690FF24FE2CEE244B
:105490008E299F290B96FC01E690FF24FE2CEE241A
:1054A000CE28DF28CD2809F43BC0065D1F4FF80148
:1054B000F690FB820F5F1F4FF801F6900B521040E1
:1054C000FC828D919C91FC01F6904F2D55279C01FB
:1054D0002F5F3F4FF901E690FF24FE2CEE244E296A
:1054E0005F29465F5F4FFA01F6904F2D5527FC016B
:1054F000F6908F2D9927F901E690FF24FE2CEE24DB
:105500008E299F290B96FC01E690FF24FE2CEE24A9
:105510004E295F29BE016D5F7F4FC401FA010995D5
:1055200064FE84C05A94F1E0F51508F47FC0D401FC
:105530008D919C911197FC01F6904F2D55279C0160
:105540002F5F3F4FF901E690FF24FE2CEE244E29F9
:105550005F294A5F5F4FFA01C690DD24FC01F69097
:105560008F2D9927F901E690FF24FE2CEE248E2939
:105570009F290796FC01E690FF24FE2CEE24CE28FE
:10558000DF28CD2809F452C00C5D1F4FF801F690BA
:10559000FA860F5F1F4FF801F690F9860F5F1F4FD5
:1055A000F801F690F8860F5F1F4FF801F690FF8222
:1055B0000F5F1F4FF801F690FE820F5F1F4FF8013B
:1055C000F69009521040FD828D919C91FC01F6905D
:1055D0004F2D55279C012F5F3F4FF901E690FF2487
:1055E000FE2CEE244E295F294A5F5F4FFA01F690A8
:1055F000AF2DBB27FC01F6908F2D9927F901E6907E
:10560000FF24FE2CEE248E299F290796FC01E690AC
:10561000FF24FE2CEE24AE29BF29F40165856F73AB
:10562000AE014B5F5F4FC401FD0109950C5E1F4F3A
:10563000F801F690F694F694F694F694F694F694AF
:10564000FF0CF401208D297F2F29208F0B5F1F4F26
:10565000F801F690F694F694F694F694F694F6948F
:105660008F2D99279695879581702E7F282BF40191
:10567000208F30C007E316E00E94F31780919C0250
:1056800080FF26C06DEC75E080E00E94690E80917D
:105690009C0280FF1DC0672D80E00E94B40E8091A7
:1056A0009C0280FF15C06AEC75E080E00E94690EE4
:1056B00080919C0280FF0CC0B80180E00E94690EBE
:1056C00080919C0280FF04C06AE080E00E94460E48
:1056D0000E9418120894211C311C822D7B84720CAC
:1056E000942D920DF501F6902F1408F471CD29E058
:1056F00030E0A20EB31E7B86492E80914402909129
:105700004502A816B90608F43FCD409252028FEF29
:1057100080935602E2E12B960C94DB0BCF93DF9340
:10572000DC01009711F40E941812EC0188896817B7
:1057300060F00E94F31780919C0280FF17C067EC15
:1057400076E080E00E94690E11C0E62FFF27EE0F81
:10575000FF1FED018C859D85E80FF91F0190F081F9
:10576000E02D309729F0848184FF02C0E0E0F0E072
:10577000CF01DF91CF910895CF93DF930E948428CA
:10578000C7E5D2E068816F3F59F082E492E00E9461
:105790008E2BFC019FB7F8948481826084839FBF25
:1057A000219682E0C536D80769F781E08093070823
:1057B000DF91CF910895CF92DF92EF92FF921F93E6
:1057C000CF93DF930E94842880910708833009F0EB
:1057D00081C08091080890910908892B09F07AC04E
:1057E000C7E5D2E018811F3F09F46BC0612F82E446
:1057F00092E00E948E2BDC019FB7F894FD0184811A
:105800008D7F816084839FBF8D919C911197FC0156
:10581000F6902F2D3327AC014F5F5F4FFA01E690D2
:10582000FF24FE2CEE242E293F292C5F3F4FF90147
:10583000C690DD24FC01F6902F2D3327FA01E69067
:10584000FF24FE2CEE242E293F292B5F3F4FF90128
:10585000E690FF24FE2CEE24CE28DF28CD2841F14F
:10586000FC01F6902F2D3327FA01E690FF24FE2C41
:10587000EE242E293F292C5F3F4FF901F6902F2D62
:105880003327FC01F6908F2D9927FA01E690FF242B
:10589000FE2CEE248E299F290596FC01E690FF241C
:1058A000FE2CEE242E293F2960E0CD01F901099557
:1058B00080915602181729F48091E5058061809344
:1058C000E5052196F2E0C536DF0709F08BCF82E0CF
:1058D000809307088091B30280FF02C082E001C07C
:1058E00081E090910708891769F0823059F493306C
:1058F00049F082E390E0909309088093080883E0E0
:1059000080930708DF91CF911F91FF90EF90DF9078
:10591000CF9008951F93CF93DF93EC01162F0E9431
:105920008E2BFC01892B19F440E050E00EC08C89CD
:10593000181749F040E050E0278130858581968135
:105940002817390711F041E050E0CA01DF91CF91EB
:105950001F9108951F93CF93DF93EA01122F0E94A6
:105960008E2BFC01892B59F19FB7F894D087C78300
:10597000212F332721FF02C0D683C583848120FFD6
:1059800002C0816001C08E7F848326FF03C08481B2
:105990008B7F848325FF03C084818460848324FFFC
:1059A00003C084818D7F848323FF03C08481826050
:1059B000848317FF03C08481886084839FBFDF9145
:1059C000CF911F9108951F93FC0194818091530200
:1059D000981709F040C04581242F23703327809108
:1059E0005402992728173907B1F546954695242F73
:1059F00033278091E60599272817390761F50E941A
:105A00009711182F882311F1803CE1F00E94F317C1
:105A100080919C0280FF16C06DE476E080E00E94D9
:105A2000690E80919C0280FF0DC0612F80E00E9472
:105A3000B40E80919C0280FF05C06AE476E080E0AD
:105A40000E94690E8091E505886003C08091E5059C
:105A500081608093E50580E090E01F9108950F93A9
:105A60001F93CF93DF93EB018A01FC018781823082
:105A700020F087ECFA01808310C0813039F40E9455
:105A8000971180FF03C080914A0202C080915202A8
:105A9000898381E08A83F801108280E090E0DF91C1
:105AA000CF911F910F910895FB01DA01809153026C
:105AB00081838091540282831C9280E090E008955B
:105AC000A0E0B0E0E6E6FDE20C94BA0B8A010E9489
:105AD0009711809353020E94971183708093540210
